{
  "address": "0x8fB1A2c6937ccCc76109265e4a518a758f977761",
  "abi": [
    {
      "inputs": [
        {
          "internalType": "uint256",
          "name": "maxDecryptionDelay_",
          "type": "uint256"
        }
      ],
      "stateMutability": "nonpayable",
      "type": "constructor"
    },
    {
      "inputs": [],
      "name": "AmountTooHigh",
      "type": "error"
    },
    {
      "inputs": [],
      "name": "CannotTransferOrUnwrap",
      "type": "error"
    },
    {
      "inputs": [
        {
          "internalType": "address",
          "name": "spender",
          "type": "address"
        },
        {
          "internalType": "uint256",
          "name": "allowance",
          "type": "uint256"
        },
        {
          "internalType": "uint256",
          "name": "needed",
          "type": "uint256"
        }
      ],
      "name": "ERC20InsufficientAllowance",
      "type": "error"
    },
    {
      "inputs": [
        {
          "internalType": "address",
          "name": "sender",
          "type": "address"
        },
        {
          "internalType": "uint256",
          "name": "balance",
          "type": "uint256"
        },
        {
          "internalType": "uint256",
          "name": "needed",
          "type": "uint256"
        }
      ],
      "name": "ERC20InsufficientBalance",
      "type": "error"
    },
    {
      "inputs": [
        {
          "internalType": "address",
          "name": "approver",
          "type": "address"
        }
      ],
      "name": "ERC20InvalidApprover",
      "type": "error"
    },
    {
      "inputs": [
        {
          "internalType": "address",
          "name": "receiver",
          "type": "address"
        }
      ],
      "name": "ERC20InvalidReceiver",
      "type": "error"
    },
    {
      "inputs": [
        {
          "internalType": "address",
          "name": "sender",
          "type": "address"
        }
      ],
      "name": "ERC20InvalidSender",
      "type": "error"
    },
    {
      "inputs": [
        {
          "internalType": "address",
          "name": "spender",
          "type": "address"
        }
      ],
      "name": "ERC20InvalidSpender",
      "type": "error"
    },
    {
      "inputs": [],
      "name": "ETHTransferFail",
      "type": "error"
    },
    {
      "inputs": [],
      "name": "GameIsFinished",
      "type": "error"
    },
    {
      "inputs": [],
      "name": "GameIsRunning",
      "type": "error"
    },
    {
      "inputs": [],
      "name": "MaxDecryptionDelayTooHigh",
      "type": "error"
    },
    {
      "inputs": [],
      "name": "PendingTimeError",
      "type": "error"
    },
    {
      "inputs": [],
      "name": "ReentrancyGuardReentrantCall",
      "type": "error"
    },
    {
      "inputs": [],
      "name": "TFHESenderNotAllowed",
      "type": "error"
    },
    {
      "anonymous": false,
      "inputs": [
        {
          "indexed": true,
          "internalType": "address",
          "name": "owner",
          "type": "address"
        },
        {
          "indexed": true,
          "internalType": "address",
          "name": "spender",
          "type": "address"
        },
        {
          "indexed": false,
          "internalType": "uint256",
          "name": "placeholder",
          "type": "uint256"
        }
      ],
      "name": "Approval",
      "type": "event"
    },
    {
      "anonymous": false,
      "inputs": [
        {
          "indexed": true,
          "internalType": "address",
          "name": "from",
          "type": "address"
        },
        {
          "indexed": true,
          "internalType": "address",
          "name": "to",
          "type": "address"
        },
        {
          "indexed": false,
          "internalType": "uint256",
          "name": "transferId",
          "type": "uint256"
        }
      ],
      "name": "Transfer",
      "type": "event"
    },
    {
      "anonymous": false,
      "inputs": [
        {
          "indexed": true,
          "internalType": "address",
          "name": "account",
          "type": "address"
        },
        {
          "indexed": false,
          "internalType": "uint64",
          "name": "amount",
          "type": "uint64"
        }
      ],
      "name": "Unwrap",
      "type": "event"
    },
    {
      "anonymous": false,
      "inputs": [
        {
          "indexed": false,
          "internalType": "address",
          "name": "account",
          "type": "address"
        },
        {
          "indexed": false,
          "internalType": "uint64",
          "name": "amount",
          "type": "uint64"
        }
      ],
      "name": "UnwrapFailNotEnoughBalance",
      "type": "event"
    },
    {
      "anonymous": false,
      "inputs": [
        {
          "indexed": false,
          "internalType": "address",
          "name": "account",
          "type": "address"
        },
        {
          "indexed": false,
          "internalType": "uint64",
          "name": "amount",
          "type": "uint64"
        }
      ],
      "name": "UnwrapFailTransferFail",
      "type": "event"
    },
    {
      "anonymous": false,
      "inputs": [
        {
          "indexed": true,
          "internalType": "address",
          "name": "account",
          "type": "address"
        },
        {
          "indexed": false,
          "internalType": "uint64",
          "name": "amount",
          "type": "uint64"
        }
      ],
      "name": "Wrap",
      "type": "event"
    },
    {
      "inputs": [],
      "name": "UNIT_KEY_PRICE",
      "outputs": [
        {
          "internalType": "uint64",
          "name": "",
          "type": "uint64"
        }
      ],
      "stateMutability": "view",
      "type": "function"
    },
    {
      "inputs": [],
      "name": "UNIT_TIME_INCREASE",
      "outputs": [
        {
          "internalType": "uint256",
          "name": "",
          "type": "uint256"
        }
      ],
      "stateMutability": "view",
      "type": "function"
    },
    {
      "inputs": [
        {
          "internalType": "address",
          "name": "owner",
          "type": "address"
        },
        {
          "internalType": "address",
          "name": "spender",
          "type": "address"
        }
      ],
      "name": "allowance",
      "outputs": [
        {
          "internalType": "euint64",
          "name": "",
          "type": "uint256"
        }
      ],
      "stateMutability": "view",
      "type": "function"
    },
    {
      "inputs": [
        {
          "internalType": "address",
          "name": "spender",
          "type": "address"
        },
        {
          "internalType": "euint64",
          "name": "amount",
          "type": "uint256"
        }
      ],
      "name": "approve",
      "outputs": [
        {
          "internalType": "bool",
          "name": "",
          "type": "bool"
        }
      ],
      "stateMutability": "nonpayable",
      "type": "function"
    },
    {
      "inputs": [
        {
          "internalType": "address",
          "name": "spender",
          "type": "address"
        },
        {
          "internalType": "einput",
          "name": "encryptedAmount",
          "type": "bytes32"
        },
        {
          "internalType": "bytes",
          "name": "inputProof",
          "type": "bytes"
        }
      ],
      "name": "approve",
      "outputs": [
        {
          "internalType": "bool",
          "name": "",
          "type": "bool"
        }
      ],
      "stateMutability": "nonpayable",
      "type": "function"
    },
    {
      "inputs": [
        {
          "internalType": "address",
          "name": "account",
          "type": "address"
        }
      ],
      "name": "balanceOf",
      "outputs": [
        {
          "internalType": "euint64",
          "name": "",
          "type": "uint256"
        }
      ],
      "stateMutability": "view",
      "type": "function"
    },
    {
      "inputs": [
        {
          "internalType": "einput",
          "name": "eRequestedKeyAmount",
          "type": "bytes32"
        },
        {
          "internalType": "bytes",
          "name": "inputProof",
          "type": "bytes"
        }
      ],
      "name": "bid",
      "outputs": [],
      "stateMutability": "nonpayable",
      "type": "function"
    },
    {
      "inputs": [
        {
          "internalType": "address",
          "name": "",
          "type": "address"
        }
      ],
      "name": "bids",
      "outputs": [
        {
          "internalType": "euint64",
          "name": "",
          "type": "uint256"
        }
      ],
      "stateMutability": "view",
      "type": "function"
    },
    {
      "inputs": [
        {
          "internalType": "uint256",
          "name": "requestId",
          "type": "uint256"
        },
        {
          "internalType": "bool",
          "name": "canUnwrap",
          "type": "bool"
        }
      ],
      "name": "callbackUnwrap",
      "outputs": [],
      "stateMutability": "nonpayable",
      "type": "function"
    },
    {
      "inputs": [],
      "name": "claim",
      "outputs": [],
      "stateMutability": "nonpayable",
      "type": "function"
    },
    {
      "inputs": [],
      "name": "decimals",
      "outputs": [
        {
          "internalType": "uint8",
          "name": "",
          "type": "uint8"
        }
      ],
      "stateMutability": "view",
      "type": "function"
    },
    {
      "inputs": [
        {
          "internalType": "uint64",
          "name": "_amount",
          "type": "uint64"
        }
      ],
      "name": "fakeWrap",
      "outputs": [],
      "stateMutability": "nonpayable",
      "type": "function"
    },
    {
      "inputs": [
        {
          "internalType": "address",
          "name": "account",
          "type": "address"
        }
      ],
      "name": "isAccountRestricted",
      "outputs": [
        {
          "internalType": "bool",
          "name": "isRestricted",
          "type": "bool"
        }
      ],
      "stateMutability": "view",
      "type": "function"
    },
    {
      "inputs": [],
      "name": "isGameFinished",
      "outputs": [
        {
          "internalType": "bool",
          "name": "",
          "type": "bool"
        }
      ],
      "stateMutability": "view",
      "type": "function"
    },
    {
      "inputs": [],
      "name": "lastPoolPrize",
      "outputs": [
        {
          "internalType": "uint256",
          "name": "",
          "type": "uint256"
        }
      ],
      "stateMutability": "view",
      "type": "function"
    },
    {
      "inputs": [],
      "name": "lastPoolPrizeTime",
      "outputs": [
        {
          "internalType": "uint256",
          "name": "",
          "type": "uint256"
        }
      ],
      "stateMutability": "view",
      "type": "function"
    },
    {
      "inputs": [],
      "name": "name",
      "outputs": [
        {
          "internalType": "string",
          "name": "",
          "type": "string"
        }
      ],
      "stateMutability": "view",
      "type": "function"
    },
    {
      "inputs": [],
      "name": "requestRevealPrizePool",
      "outputs": [],
      "stateMutability": "nonpayable",
      "type": "function"
    },
    {
      "inputs": [
        {
          "internalType": "uint256",
          "name": "_requestId",
          "type": "uint256"
        }
      ],
      "name": "requestedUsers",
      "outputs": [
        {
          "internalType": "address",
          "name": "_user",
          "type": "address"
        }
      ],
      "stateMutability": "view",
      "type": "function"
    },
    {
      "inputs": [
        {
          "internalType": "uint256",
          "name": "requestId",
          "type": "uint256"
        },
        {
          "internalType": "uint256",
          "name": "_isNewWinner",
          "type": "uint256"
        }
      ],
      "name": "revealNewWinner",
      "outputs": [],
      "stateMutability": "nonpayable",
      "type": "function"
    },
    {
      "inputs": [
        {
          "internalType": "uint256",
          "name": "",
          "type": "uint256"
        },
        {
          "internalType": "uint256",
          "name": "_lastPoolPrize",
          "type": "uint256"
        },
        {
          "internalType": "uint256",
          "name": "_isGameFinished",
          "type": "uint256"
        }
      ],
      "name": "revealPrizePool",
      "outputs": [],
      "stateMutability": "nonpayable",
      "type": "function"
    },
    {
      "inputs": [],
      "name": "symbol",
      "outputs": [
        {
          "internalType": "string",
          "name": "",
          "type": "string"
        }
      ],
      "stateMutability": "view",
      "type": "function"
    },
    {
      "inputs": [],
      "name": "totalSupply",
      "outputs": [
        {
          "internalType": "uint64",
          "name": "",
          "type": "uint64"
        }
      ],
      "stateMutability": "view",
      "type": "function"
    },
    {
      "inputs": [
        {
          "internalType": "address",
          "name": "to",
          "type": "address"
        },
        {
          "internalType": "einput",
          "name": "encryptedAmount",
          "type": "bytes32"
        },
        {
          "internalType": "bytes",
          "name": "inputProof",
          "type": "bytes"
        }
      ],
      "name": "transfer",
      "outputs": [
        {
          "internalType": "bool",
          "name": "",
          "type": "bool"
        }
      ],
      "stateMutability": "nonpayable",
      "type": "function"
    },
    {
      "inputs": [
        {
          "internalType": "address",
          "name": "to",
          "type": "address"
        },
        {
          "internalType": "euint64",
          "name": "amount",
          "type": "uint256"
        }
      ],
      "name": "transfer",
      "outputs": [
        {
          "internalType": "bool",
          "name": "",
          "type": "bool"
        }
      ],
      "stateMutability": "nonpayable",
      "type": "function"
    },
    {
      "inputs": [
        {
          "internalType": "address",
          "name": "from",
          "type": "address"
        },
        {
          "internalType": "address",
          "name": "to",
          "type": "address"
        },
        {
          "internalType": "euint64",
          "name": "amount",
          "type": "uint256"
        }
      ],
      "name": "transferFrom",
      "outputs": [
        {
          "internalType": "bool",
          "name": "",
          "type": "bool"
        }
      ],
      "stateMutability": "nonpayable",
      "type": "function"
    },
    {
      "inputs": [
        {
          "internalType": "address",
          "name": "from",
          "type": "address"
        },
        {
          "internalType": "address",
          "name": "to",
          "type": "address"
        },
        {
          "internalType": "einput",
          "name": "encryptedAmount",
          "type": "bytes32"
        },
        {
          "internalType": "bytes",
          "name": "inputProof",
          "type": "bytes"
        }
      ],
      "name": "transferFrom",
      "outputs": [
        {
          "internalType": "bool",
          "name": "",
          "type": "bool"
        }
      ],
      "stateMutability": "nonpayable",
      "type": "function"
    },
    {
      "inputs": [
        {
          "internalType": "uint64",
          "name": "amount",
          "type": "uint64"
        }
      ],
      "name": "unwrap",
      "outputs": [],
      "stateMutability": "nonpayable",
      "type": "function"
    },
    {
      "inputs": [
        {
          "internalType": "uint256",
          "name": "requestId",
          "type": "uint256"
        }
      ],
      "name": "unwrapRequests",
      "outputs": [
        {
          "internalType": "address",
          "name": "account",
          "type": "address"
        },
        {
          "internalType": "uint64",
          "name": "amount",
          "type": "uint64"
        }
      ],
      "stateMutability": "view",
      "type": "function"
    },
    {
      "inputs": [],
      "name": "winner",
      "outputs": [
        {
          "internalType": "address",
          "name": "",
          "type": "address"
        }
      ],
      "stateMutability": "view",
      "type": "function"
    },
    {
      "inputs": [],
      "name": "wrap",
      "outputs": [],
      "stateMutability": "payable",
      "type": "function"
    },
    {
      "stateMutability": "payable",
      "type": "receive"
    }
  ],
  "transactionHash": "0xfbf123bba050a850e8d942a5a79b7ebf27d39a4afee33f0491e695ed9377c25e",
  "args": [
    1800
  ],
  "numDeployments": 7,
  "solcInputHash": "d7308e600bfe2194d8e3fc7c2c46707c",
  "bytecode": "0x608060405234801562000010575f80fd5b5060405162002ef238038062002ef2833981016040819052620000339162000461565b6040517f436f6e666964656e7469616c205772617070656420457468657200000000000060208201528190603a0160408051601f198184030181529082905264574554486360d81b60208301529060250160408051601f19818403018152919052620001fe62000134604080516080810182525f808252602082018190529181018290526060810191909152506040805160808101825273fee8407e2f5e3ee68ad77cae98c434e637f516e5815273687408ab54661ba0b4aef3a44156c616c6955e07602082015273fb03be574d14c256d56f09a198b586bdfc0a9de291810191909152739d6891a6240d6130c54ae243d8005063d05fe14b606082015290565b80515f8051602062002ed283398151915280546001600160a01b03199081166001600160a01b039384161790915560208301517fed8d60e34876f751cc8b014c560745351147d9de11b9347c854e881b128ea6018054831691841691909117905560408301517fed8d60e34876f751cc8b014c560745351147d9de11b9347c854e881b128ea6028054831691841691909117905560608301517fed8d60e34876f751cc8b014c560745351147d9de11b9347c854e881b128ea6038054909216921691909117905550565b7f93ab6e17f2c461cce6ea5d4ec117e51dda77a64affc2b2c05f8cd440def0e70080546001600160a01b0319167333347831500f1e73f0cccbb95c9f86b94d7b1123179055600162000251838262000517565b50600262000260828262000517565b50505062015180811115620002885760405163049587e360e41b815260040160405180910390fd5b50678ac7230489e800006200029d8162000308565b6011819055620002ad906200031c565b620002c6620002c04262015180620005e3565b62000328565b6012819055620002d6906200031c565b601680546001600160a01b03191690556014819055620002f942610708620005e3565b60155550620006039050565b50565b5f6200031682600562000331565b92915050565b620003058130620003e8565b5f620003168260085b5f805f8051602062002ed28339815191526001810154604051631ce2e8d760e31b8152600481018790527fff0000000000000000000000000000000000000000000000000000000000000060f887901b1660248201529192506001600160a01b03169063e71746b8906044016020604051808303815f875af1158015620003ba573d5f803e3d5ffd5b505050506040513d601f19601f82011682018060405250810190620003e0919062000461565b949350505050565b5f5f8051602062002ed28339815191528054604051631974142760e21b8152600481018690526001600160a01b0385811660248301529293509116906365d0509c906044015f604051808303815f87803b15801562000445575f80fd5b505af115801562000458573d5f803e3d5ffd5b50505050505050565b5f6020828403121562000472575f80fd5b5051919050565b634e487b7160e01b5f52604160045260245ffd5b600181811c90821680620004a257607f821691505b602082108103620004c157634e487b7160e01b5f52602260045260245ffd5b50919050565b601f8211156200051257805f5260205f20601f840160051c81016020851015620004ee5750805b601f840160051c820191505b818110156200050f575f8155600101620004fa565b50505b505050565b81516001600160401b0381111562000533576200053362000479565b6200054b816200054484546200048d565b84620004c7565b602080601f83116001811462000581575f8415620005695750858301515b5f19600386901b1c1916600185901b178555620005db565b5f85815260208120601f198616915b82811015620005b15788860151825594840194600190910190840162000590565b5085821015620005cf57878501515f19600388901b60f8161c191681555b505060018460011b0185555b505050505050565b808201808211156200031657634e487b7160e01b5f52601160045260245ffd5b6128c180620006115f395ff3fe6080604052600436106101d3575f3560e01c806395d89b41116100fd578063dc412e8311610092578063e6e0950511610062578063e6e09505146105b5578063e6e547fc146105e3578063ef890cc8146105fc578063f7361f0d14610615575f80fd5b8063dc412e831461050c578063dd62ed3e1461052b578063dfbf53ae1461054a578063dfdc296d14610581575f80fd5b8063b32c1001116100cd578063b32c100114610457578063b820e6ce14610476578063d46eb11914610495578063d99c2a721461049d575f80fd5b806395d89b41146103f05780639a094352146104045780639cebaabd14610423578063a9059cbb14610438575f80fd5b806338263e821161017357806370a082311161014357806370a0823114610374578063755402f1146103a85780637b7e0a5a146103bc5780637f8a3dca146103db575f80fd5b806338263e82146102e957806341899251146103085780634e71d92d1461032757806362ea82db1461033b575f80fd5b806318160ddd116101ae57806318160ddd1461025e57806323b872dd1461029057806324dd0c35146102af578063313ce567146102ce575f80fd5b806304db1083146101e657806306fdde0314610205578063095ea7b31461022f575f80fd5b366101e2576101e061062a565b005b5f80fd5b3480156101f1575f80fd5b506101e0610200366004612253565b61071a565b348015610210575f80fd5b50610219610790565b60405161022691906122b6565b60405180910390f35b34801561023a575f80fd5b5061024e6102493660046122e3565b610820565b6040519015158152602001610226565b348015610269575f80fd5b505f5467ffffffffffffffff165b60405167ffffffffffffffff9091168152602001610226565b34801561029b575f80fd5b5061024e6102aa36600461230b565b610890565b3480156102ba575f80fd5b506101e06102c9366004612344565b6108c1565b3480156102d9575f80fd5b5060405160068152602001610226565b3480156102f4575f80fd5b506101e06103033660046123b0565b61090d565b348015610313575f80fd5b506101e06103223660046123f8565b610b98565b348015610332575f80fd5b506101e0610bef565b348015610346575f80fd5b50610366610355366004612421565b60176020525f908152604090205481565b604051908152602001610226565b34801561037f575f80fd5b5061036661038e366004612421565b6001600160a01b03165f9081526003602052604090205490565b3480156103b3575f80fd5b506101e0610c63565b3480156103c7575f80fd5b5061024e6103d636600461243a565b610d39565b3480156103e6575f80fd5b5061036660155481565b3480156103fb575f80fd5b50610219610d7d565b34801561040f575f80fd5b5061024e61041e366004612490565b610d8c565b34801561042e575f80fd5b5061036661070881565b348015610443575f80fd5b5061024e6104523660046122e3565b610dde565b348015610462575f80fd5b5061024e61047136600461243a565b610e1a565b348015610481575f80fd5b506101e0610490366004612507565b610e5e565b6101e061062a565b3480156104a8575f80fd5b506104e46104b7366004612535565b60106020525f90815260409020546001600160a01b03811690600160a01b900467ffffffffffffffff1682565b604080516001600160a01b03909316835267ffffffffffffffff909116602083015201610226565b348015610517575f80fd5b506101e0610526366004612344565b611120565b348015610536575f80fd5b5061036661054536600461254c565b611217565b348015610555575f80fd5b50601654610569906001600160a01b031681565b6040516001600160a01b039091168152602001610226565b34801561058c575f80fd5b5061056961059b366004612535565b60186020525f90815260409020546001600160a01b031681565b3480156105c0575f80fd5b5061024e6105cf366004612421565b600f6020525f908152604090205460ff1681565b3480156105ee575f80fd5b50610277655af3107a400081565b348015610607575f80fd5b5060135461024e9060ff1681565b348015610620575f80fd5b5061036660145481565b5f61063760066012612591565b61064290600a61268a565b61064c9034612698565b905067ffffffffffffffff8111156106775760405163fd7850ad60e01b815260040160405180910390fd5b806106823382611246565b5f8054829190819061069f90849067ffffffffffffffff166126b7565b92506101000a81548167ffffffffffffffff021916908367ffffffffffffffff160217905550336001600160a01b03167f20925aeb4fb032b41fb6819a065d482a8e6c281370fc218281522cc25182536b8260405161070e919067ffffffffffffffff91909116815260200190565b60405180910390a25050565b7f93ab6e17f2c461cce6ea5d4ec117e51dda77a64affc2b2c05f8cd440def0e700546001600160a01b0316331461074f575f80fd5b801561078c576016805473ffffffffffffffffffffffffffffffffffffffff1990811633179091555f838152601860205260409020805490911690555b5050565b60606001805461079f906126df565b80601f01602080910402602001604051908101604052809291908181526020018280546107cb906126df565b80156108165780601f106107ed57610100808354040283529160200191610816565b820191905f5260205f20905b8154815290600101906020018083116107f957829003601f168201915b5050505050905090565b5f61082a82611295565b336108368185856112be565b836001600160a01b0316816001600160a01b03167f8c5be1e5ebec7d5bd14f71427d1e84f3dd0314c0f7b2291e5b200ac8c7c3b9255f1960405161087c91815260200190565b60405180910390a360019150505b92915050565b5f61089a82611295565b335f6108a786838661136b565b90506108b5868686846113fc565b50600195945050505050565b6108cb3382611246565b60405167ffffffffffffffff8216815233907f20925aeb4fb032b41fb6819a065d482a8e6c281370fc218281522cc25182536b9060200160405180910390a250565b60135460ff16156109315760405163345275e760e11b815260040160405180910390fd5b5f61093b4261145c565b90505f61094a82601254611468565b90505f61099e826109908888888080601f0160208091040260200160405190810160405280939291908181526020018383808284375f9201919091525061149692505050565b6109995f6114a3565b6114af565b90505f6109b0655af3107a40006114a3565b90505f6109bd83836114c3565b335f90815260036020526040812054919250906109db9083906114f1565b90505f6109ec82846109995f6114a3565b90506109fa60115482611511565b601155335f90815260036020526040812054610a16908361153f565b335f908152600360205260409020819055601154909150610a369061156d565b610a3f8161156d565b610a498133611577565b5f610a5884886109995f6114a3565b335f9081526017602052604081205491925090610a759083611511565b335f9081526017602052604090208190559050610a918161156d565b610a9b8133611577565b5f610aa6603c611581565b90505f610ab38483611597565b90505f610ac161070861145c565b9050610ae582610adc601254610ad785886115c5565b6115fb565b6109995f61145c565b6012819055610af39061156d565b610afc8261156d565b6040805160018082528183019092525f916020808301908036833701905050905082815f81518110610b3057610b30612717565b60209081029190910101525f610b5a826304db108360e01b83610b5442606461272b565b5f61161b565b5f908152601860205260409020805473ffffffffffffffffffffffffffffffffffffffff191633179055505050505050505050505050505050505050565b7f93ab6e17f2c461cce6ea5d4ec117e51dda77a64affc2b2c05f8cd440def0e700546001600160a01b03163314610bcd575f80fd5b6014829055426015558015610bea576013805460ff191660011790555b505050565b60135460ff16610c125760405163651465e760e01b815260040160405180910390fd5b335f90815260036020526040812054601154610c2e9190611511565b335f9081526003602052604090208190559050610c4a8161156d565b610c548133611577565b610c5d5f6114a3565b60115550565b610708601554610c73919061272b565b4211610c9257604051630ae8d6a760e21b815260040160405180910390fd5b5f610c9c4261145c565b90505f610cab60125483611732565b9050610cb68161156d565b6040805160028082526060820183525f92602083019080368337019050509050610cdf60115490565b815f81518110610cf157610cf1612717565b60209081029190910101528181600181518110610d1057610d10612717565b6020908102919091010152610d3381634189925160e01b5f610b5442606461272b565b50505050565b5f6108b5856104528686868080601f0160208091040260200160405190810160405280939291908181526020018383808284375f9201919091525061149692505050565b60606002805461079f906126df565b5f610dd186866102aa8787878080601f0160208091040260200160405190810160405280939291908181526020018383808284375f9201919091525061149692505050565b5060019695505050505050565b5f610de882611295565b335f90815260036020526040812054610e029084906114f1565b9050610e10338585846113fc565b5060019392505050565b5f6108b5856102498686868080601f0160208091040260200160405190810160405280939291908181526020018383808284375f9201919091525061149692505050565b610e66611752565b7f93ab6e17f2c461cce6ea5d4ec117e51dda77a64affc2b2c05f8cd440def0e700546001600160a01b03163314610e9b575f80fd5b5f828152601060209081526040918290208251808401909352546001600160a01b0381168352600160a01b900467ffffffffffffffff16908201528115611082575f610ee960066012612591565b610ef490600a61268a565b826020015167ffffffffffffffff16610f0d919061273e565b90505f825f01516001600160a01b0316826040515f6040518083038185875af1925050503d805f8114610f5b576040519150601f19603f3d011682016040523d82523d5f602084013e610f60565b606091505b50509050801561101d57610f7b835f015184602001516117c1565b60208301515f80548190610f9a90849067ffffffffffffffff16612755565b92506101000a81548167ffffffffffffffff021916908367ffffffffffffffff160217905550825f01516001600160a01b03167f0bbd89dc609b4c985f78b075c0f9271cf66dd34e7e08bb2437a103a6ba9a8db78460200151604051611010919067ffffffffffffffff91909116815260200190565b60405180910390a261107b565b825160208401516040517f936799e3a22b0bdb5ef05df98e796a4835cff5297075fdb001414e53f5e302a7926110729290916001600160a01b0392909216825267ffffffffffffffff16602082015260400190565b60405180910390a15b50506110e0565b805160208201516040517f48a802dbfec664d2280b2ebd5e5ed95ebbc1c96453297d67cbf0c721884fac9e926110d79290916001600160a01b0392909216825267ffffffffffffffff16602082015260400190565b60405180910390a15b5f83815260106020908152604080832080546001600160e01b031916905592516001600160a01b03168252600f905220805460ff1916905561078c611858565b61112933611882565b335f908152600f60209081526040808320805460ff1916600117905560039091528120546111589083906118bb565b6040805160018082528183019092529192505f91906020808301908036833701905050905081815f8151811061119057611190612717565b60209081029190910101525f6111b482635c10736760e11b83610b5442606461272b565b60408051808201825233815267ffffffffffffffff96871660208083019182525f9485526010905291909220915182549151909616600160a01b026001600160e01b03199091166001600160a01b03969096169590951794909417909355505050565b6001600160a01b038083165f9081526004602090815260408083209385168352929052908120545b9392505050565b61125082826118e3565b6040515f1981526001600160a01b038316905f907fddf252ad1be2c89b69c2b068fc378daa952ba7f163c4a11628f55a4df523b3ef9060200160405180910390a35050565b61129e81611934565b6112bb57604051632fa38b3f60e01b815260040160405180910390fd5b50565b6001600160a01b0383166112f55760405163e602df0560e01b81526001600160a01b03841660048201526024015b60405180910390fd5b6001600160a01b03821661132757604051634a1406b160e11b81526001600160a01b03831660048201526024016112ec565b6001600160a01b038084165f9081526004602090815260408083209386168352929052208190556113578161156d565b6113618184611577565b610bea8183611577565b6001600160a01b038084165f9081526004602090815260408083209386168352929052908120545f61139d84836114f1565b6001600160a01b0387165f90815260036020526040812054919250906113c49086906114f1565b90505f6113d1828461193f565b90506113f188886113ec846113e6898c61153f565b896114af565b6112be565b979650505050505050565b6114088484848461194b565b826001600160a01b0316846001600160a01b03167fddf252ad1be2c89b69c2b068fc378daa952ba7f163c4a11628f55a4df523b3ef5f1960405161144e91815260200190565b60405180910390a350505050565b5f61088a826008611960565b5f8261147a576114775f61145c565b92505b8161148b576114885f61145c565b91505b61123f83835f6119fe565b5f61123f83836005611abb565b5f61088a826005611960565b5f6114bb848484611bb9565b949350505050565b5f826114d5576114d25f6114a3565b92505b816114e6576114e35f6114a3565b91505b61123f83835f611c4f565b5f82611503576115005f6114a3565b92505b8161148b576114885f6114a3565b5f82611523576115205f6114a3565b92505b81611534576115315f6114a3565b91505b61123f83835f611cc6565b5f826115515761154e5f6114a3565b92505b816115625761155f5f6114a3565b91505b61123f83835f611d3d565b6112bb8130611db4565b61078c8282611db4565b5f61088a8267ffffffffffffffff166005611e2a565b5f826115a9576115a65f6114a3565b92505b816115ba576115b75f6114a3565b91505b61123f83835f611e8c565b5f826115d7576115d45f61145c565b92505b816115e8576115e55f6114a3565b91505b61123f836115f584611f03565b5f611c4f565b5f8261160d5761160a5f61145c565b92505b81611534576115315f61145c565b5f80516020612875833981519152805460405163155f840160e21b81525f92916001600160a01b03169063557e100490611659908a906004016127b0565b5f604051808303815f87803b158015611670575f80fd5b505af1158015611682573d5f803e3d5ffd5b505050505f6116ae7f93ab6e17f2c461cce6ea5d4ec117e51dda77a64affc2b2c05f8cd440def0e70090565b8054604051634c0d927760e01b81529192506001600160a01b031690634c0d9277906116e6908b908b908b908b908b906004016127c2565b6020604051808303815f875af1158015611702573d5f803e3d5ffd5b505050506040513d601f19601f820116820180604052508101906117269190612804565b98975050505050505050565b5f82611744576117415f61145c565b92505b816115ba576115b75f61145c565b7f9b779b17422d0df92223018b32b4d1fa46e071723d6817e2486d003becc55f005c1561179257604051633ee5aeb560e01b815260040160405180910390fd5b6117bf60017f9b779b17422d0df92223018b32b4d1fa46e071723d6817e2486d003becc55f005b90611f0f565b565b6001600160a01b0382165f908152600360205260408120546117e39083611f16565b6001600160a01b0384165f90815260036020526040902081905590506118088161156d565b6118128184611577565b6040515f1981525f906001600160a01b038516907fddf252ad1be2c89b69c2b068fc378daa952ba7f163c4a11628f55a4df523b3ef9060200160405180910390a3505050565b6117bf5f7f9b779b17422d0df92223018b32b4d1fa46e071723d6817e2486d003becc55f006117b9565b6001600160a01b0381165f908152600f602052604090205460ff16156112bb5760405163adf54df960e01b815260040160405180910390fd5b5f816118cd576118ca5f6114a3565b91505b61123f828467ffffffffffffffff166001611f3e565b6001600160a01b0382165f908152600360205260408120546119059083611fb5565b6001600160a01b0384165f908152600360205260409020819055905061192a8161156d565b610bea8184611577565b5f61088a8233611fdd565b5f61123f83835f612061565b61195484611882565b610d33848484846120d8565b5f8051602061289583398151915254604051631ce2e8d760e31b81526004810184905260f883901b6001600160f81b03191660248201525f915f80516020612875833981519152916001600160a01b039091169063e71746b8906044015b6020604051808303815f875af11580156119da573d5f803e3d5ffd5b505050506040513d601f19601f820116820180604052508101906114bb9190612804565b5f808215611a115750600160f81b611a14565b505f5b5f80516020612895833981519152546040516334a6d7b960e11b815260048101879052602481018690526001600160f81b0319831660448201525f80516020612875833981519152916001600160a01b03169063694daf72906064015b6020604051808303815f875af1158015611a8d573d5f803e3d5ffd5b505050506040513d601f19601f82011682018060405250810190611ab19190612804565b9695505050505050565b5f80516020612895833981519152546040516302e817ff60e41b81525f915f80516020612875833981519152916001600160a01b0390911690632e817ff090611b129088903390899060f88a901b9060040161281b565b6020604051808303815f875af1158015611b2e573d5f803e3d5ffd5b505050506040513d601f19601f82011682018060405250810190611b529190612804565b81546040516346ce4e4960e11b8152600481018390523360248201529193506001600160a01b031690638d9c9c92906044015f604051808303815f87803b158015611b9b575f80fd5b505af1158015611bad573d5f803e3d5ffd5b50505050509392505050565b5f805f80516020612875833981519152600181015460405163cb3b940760e01b81526004810188905260248101879052604481018690529192506001600160a01b03169063cb3b9407906064016020604051808303815f875af1158015611c22573d5f803e3d5ffd5b505050506040513d601f19601f82011682018060405250810190611c469190612804565b95945050505050565b5f808215611c625750600160f81b611c65565b505f5b5f805160206128958339815191525460405163816d57d360e01b815260048101879052602481018690526001600160f81b0319831660448201525f80516020612875833981519152916001600160a01b03169063816d57d390606401611a71565b5f808215611cd95750600160f81b611cdc565b505f5b5f805160206128958339815191525460405163f953e42760e01b815260048101879052602481018690526001600160f81b0319831660448201525f80516020612875833981519152916001600160a01b03169063f953e42790606401611a71565b5f808215611d505750600160f81b611d53565b505f5b5f8051602061289583398151915254604051638c14cc2160e01b815260048101879052602481018690526001600160f81b0319831660448201525f80516020612875833981519152916001600160a01b031690638c14cc2190606401611a71565b5f5f805160206128758339815191528054604051631974142760e21b8152600481018690526001600160a01b0385811660248301529293509116906365d0509c906044015f604051808303815f87803b158015611e0f575f80fd5b505af1158015611e21573d5f803e3d5ffd5b50505050505050565b5f805160206128958339815191525460405163fa33b7af60e01b81526004810184905260f883901b6001600160f81b03191660248201525f915f80516020612875833981519152916001600160a01b039091169063fa33b7af906044016119be565b5f808215611e9f5750600160f81b611ea2565b505f5b5f8051602061289583398151915254604051631f31e28560e11b815260048101879052602481018690526001600160f81b0319831660448201525f80516020612875833981519152916001600160a01b031690633e63c50a90606401611a71565b5f61088a8260086121f1565b80825d5050565b5f82611f2857611f255f6114a3565b92505b61123f838367ffffffffffffffff166001611d3d565b5f808215611f515750600160f81b611f54565b505f5b5f805160206128958339815191525460405163052896f160e01b815260048101879052602481018690526001600160f81b0319831660448201525f80516020612875833981519152916001600160a01b03169063052896f190606401611a71565b5f82611fc757611fc45f6114a3565b92505b61123f838367ffffffffffffffff166001611cc6565b5f805f805160206128758339815191528054604051632fd514cd60e11b8152600481018790526001600160a01b038681166024830152929350911690635faa299a90604401602060405180830381865afa15801561203d573d5f803e3d5ffd5b505050506040513d601f19601f820116820180604052508101906114bb9190612859565b5f8082156120745750600160f81b612077565b505f5b5f8051602061289583398151915254604051630ccd46b160e31b815260048101879052602481018690526001600160f81b0319831660448201525f80516020612875833981519152916001600160a01b03169063666a358890606401611a71565b6001600160a01b03841661210a57604051634b637e8f60e11b81526001600160a01b03851660048201526024016112ec565b6001600160a01b03831661213c5760405163ec442f0560e01b81526001600160a01b03841660048201526024016112ec565b5f61214b82846109995f6114a3565b6001600160a01b0385165f90815260036020526040812054919250906121719083611511565b6001600160a01b0386165f90815260036020526040902081905590506121968161156d565b6121a08186611577565b6001600160a01b0386165f908152600360205260408120546121c2908461153f565b6001600160a01b0388165f90815260036020526040902081905590506121e78161156d565b611e218188611577565b5f805160206128958339815191525460405163025f346960e51b81526004810184905260f883901b6001600160f81b03191660248201525f915f80516020612875833981519152916001600160a01b0390911690634be68d20906044016119be565b5f8060408385031215612264575f80fd5b50508035926020909101359150565b5f81518084525f5b818110156122975760208185018101518683018201520161227b565b505f602082860101526020601f19601f83011685010191505092915050565b602081525f61123f6020830184612273565b80356001600160a01b03811681146122de575f80fd5b919050565b5f80604083850312156122f4575f80fd5b6122fd836122c8565b946020939093013593505050565b5f805f6060848603121561231d575f80fd5b612326846122c8565b9250612334602085016122c8565b9150604084013590509250925092565b5f60208284031215612354575f80fd5b813567ffffffffffffffff8116811461123f575f80fd5b5f8083601f84011261237b575f80fd5b50813567ffffffffffffffff811115612392575f80fd5b6020830191508360208285010111156123a9575f80fd5b9250929050565b5f805f604084860312156123c2575f80fd5b83359250602084013567ffffffffffffffff8111156123df575f80fd5b6123eb8682870161236b565b9497909650939450505050565b5f805f6060848603121561240a575f80fd5b505081359360208301359350604090920135919050565b5f60208284031215612431575f80fd5b61123f826122c8565b5f805f806060858703121561244d575f80fd5b612456856122c8565b935060208501359250604085013567ffffffffffffffff811115612478575f80fd5b6124848782880161236b565b95989497509550505050565b5f805f805f608086880312156124a4575f80fd5b6124ad866122c8565b94506124bb602087016122c8565b935060408601359250606086013567ffffffffffffffff8111156124dd575f80fd5b6124e98882890161236b565b969995985093965092949392505050565b80151581146112bb575f80fd5b5f8060408385031215612518575f80fd5b82359150602083013561252a816124fa565b809150509250929050565b5f60208284031215612545575f80fd5b5035919050565b5f806040838503121561255d575f80fd5b612566836122c8565b9150612574602084016122c8565b90509250929050565b634e487b7160e01b5f52601160045260245ffd5b60ff828116828216039081111561088a5761088a61257d565b600181815b808511156125e457815f19048211156125ca576125ca61257d565b808516156125d757918102915b93841c93908002906125af565b509250929050565b5f826125fa5750600161088a565b8161260657505f61088a565b816001811461261c576002811461262657612642565b600191505061088a565b60ff8411156126375761263761257d565b50506001821b61088a565b5060208310610133831016604e8410600b8410161715612665575081810a61088a565b61266f83836125aa565b805f19048211156126825761268261257d565b029392505050565b5f61123f60ff8416836125ec565b5f826126b257634e487b7160e01b5f52601260045260245ffd5b500490565b67ffffffffffffffff8181168382160190808211156126d8576126d861257d565b5092915050565b600181811c908216806126f357607f821691505b60208210810361271157634e487b7160e01b5f52602260045260245ffd5b50919050565b634e487b7160e01b5f52603260045260245ffd5b8082018082111561088a5761088a61257d565b808202811582820484141761088a5761088a61257d565b67ffffffffffffffff8281168282160390808211156126d8576126d861257d565b5f815180845260208085019450602084015f5b838110156127a557815187529582019590820190600101612789565b509495945050505050565b602081525f61123f6020830184612776565b60a081525f6127d460a0830188612776565b6001600160e01b031996909616602083015250604081019390935260608301919091521515608090910152919050565b5f60208284031215612814575f80fd5b5051919050565b8481526001600160a01b0384166020820152608060408201525f6128426080830185612273565b905060ff60f81b8316606083015295945050505050565b5f60208284031215612869575f80fd5b815161123f816124fa56feed8d60e34876f751cc8b014c560745351147d9de11b9347c854e881b128ea600ed8d60e34876f751cc8b014c560745351147d9de11b9347c854e881b128ea601a164736f6c6343000818000aed8d60e34876f751cc8b014c560745351147d9de11b9347c854e881b128ea600",
  "devdoc": {
    "errors": {
      "ERC20InsufficientAllowance(address,uint256,uint256)": [
        {
          "details": "Indicates a failure with the `spender`s `allowance`. Used in transfers.",
          "params": {
            "allowance": "Amount of tokens a `spender` is allowed to operate with.",
            "needed": "Minimum amount required to perform a transfer.",
            "spender": "Address that may be allowed to operate on tokens without being their owner."
          }
        }
      ],
      "ERC20InsufficientBalance(address,uint256,uint256)": [
        {
          "details": "Indicates an error related to the current `balance` of a `sender`. Used in transfers.",
          "params": {
            "balance": "Current balance for the interacting account.",
            "needed": "Minimum amount required to perform a transfer.",
            "sender": "Address whose tokens are being transferred."
          }
        }
      ],
      "ERC20InvalidApprover(address)": [
        {
          "details": "Indicates a failure with the `approver` of a token to be approved. Used in approvals.",
          "params": {
            "approver": "Address initiating an approval operation."
          }
        }
      ],
      "ERC20InvalidReceiver(address)": [
        {
          "details": "Indicates a failure with the token `receiver`. Used in transfers.",
          "params": {
            "receiver": "Address to which tokens are being transferred."
          }
        }
      ],
      "ERC20InvalidSender(address)": [
        {
          "details": "Indicates a failure with the token `sender`. Used in transfers.",
          "params": {
            "sender": "Address whose tokens are being transferred."
          }
        }
      ],
      "ERC20InvalidSpender(address)": [
        {
          "details": "Indicates a failure with the `spender` to be approved. Used in approvals.",
          "params": {
            "spender": "Address that may be allowed to operate on tokens without being their owner."
          }
        }
      ],
      "ReentrancyGuardReentrantCall()": [
        {
          "details": "Unauthorized reentrant call."
        }
      ]
    },
    "events": {
      "Approval(address,address,uint256)": {
        "params": {
          "owner": "Owner address.",
          "placeholder": "Placeholder.",
          "spender": "Spender address."
        }
      },
      "Transfer(address,address,uint256)": {
        "params": {
          "from": "Sender address.",
          "to": "Receiver address.",
          "transferId": "If the implementation does not support error handling, it must be set to a default                      placeholder (typically equal to max(uint256). However, it must be set to a transferId                      if the implementation supports encrypted error handling."
        }
      },
      "Unwrap(address,uint64)": {
        "params": {
          "account": "Address of the account that unwraps tokens.",
          "amount": "Amount to unwrap."
        }
      },
      "UnwrapFailNotEnoughBalance(address,uint64)": {
        "params": {
          "account": "Address of the account that tried to unwrap.",
          "amount": "Amount to unwrap."
        }
      },
      "UnwrapFailTransferFail(address,uint64)": {
        "params": {
          "account": "Address of the account that tried to unwrap.",
          "amount": "Amount to unwrap."
        }
      },
      "Wrap(address,uint64)": {
        "params": {
          "account": "Address of the account that wraps tokens.",
          "amount": "Amount to wrap."
        }
      }
    },
    "kind": "dev",
    "methods": {
      "bid(bytes32,bytes)": {
        "details": "Should still have a probability of failling"
      },
      "callbackUnwrap(uint256,bool)": {
        "params": {
          "canUnwrap": "Whether it can be unwrapped.",
          "requestId": "Request id."
        }
      },
      "unwrap(uint64)": {
        "params": {
          "amount": "Amount to unwrap."
        }
      }
    },
    "version": 1
  },
  "userdoc": {
    "errors": {
      "AmountTooHigh()": [
        {
          "notice": "Returned if the amount is greater than 2**64."
        }
      ],
      "CannotTransferOrUnwrap()": [
        {
          "notice": "Returned if user cannot transfer or mint."
        }
      ],
      "ETHTransferFail()": [
        {
          "notice": "Returned if ETH transfer fails."
        }
      ],
      "MaxDecryptionDelayTooHigh()": [
        {
          "notice": "Returned if the maximum decryption delay is higher than 1 day."
        }
      ],
      "TFHESenderNotAllowed()": [
        {
          "notice": "Returned when the `sender` is not allowed to access a value."
        }
      ]
    },
    "events": {
      "Approval(address,address,uint256)": {
        "notice": "Emitted when the allowance of a `spender` for an `owner` is set by                      a call to {approve}."
      },
      "Transfer(address,address,uint256)": {
        "notice": "Emitted when tokens are moved from one account (`from`) to                      another (`to`)."
      },
      "Unwrap(address,uint64)": {
        "notice": "Emitted when token is unwrapped."
      },
      "UnwrapFailNotEnoughBalance(address,uint64)": {
        "notice": "Emitted if unwrap fails due to lack of funds."
      },
      "UnwrapFailTransferFail(address,uint64)": {
        "notice": "Emitted if unwrap fails due to fail transfer."
      },
      "Wrap(address,uint64)": {
        "notice": "Emitted when token is wrapped."
      }
    },
    "kind": "user",
    "methods": {
      "allowance(address,address)": {
        "notice": "See {IConfidentialERC20-allowance}."
      },
      "approve(address,bytes32,bytes)": {
        "notice": "See {IConfidentialERC20-approve}."
      },
      "approve(address,uint256)": {
        "notice": "See {IConfidentialERC20-approve}."
      },
      "balanceOf(address)": {
        "notice": "See {IConfidentialERC20-balanceOf}."
      },
      "bid(bytes32,bytes)": {
        "notice": "Contraint on the frontend to limit the number of tokens FIXME: Need to add a limit in the smart contract!"
      },
      "callbackUnwrap(uint256,bool)": {
        "notice": "Callback function for the gateway."
      },
      "decimals()": {
        "notice": "See {IConfidentialERC20-decimals}."
      },
      "fakeWrap(uint64)": {
        "notice": "avoid to spend eth for wrapping - only for demo time"
      },
      "isAccountRestricted(address)": {
        "notice": "Tracks whether the account can move funds."
      },
      "name()": {
        "notice": "See {IConfidentialERC20-name}."
      },
      "revealPrizePool(uint256,uint256,uint256)": {
        "notice": "Callback function to reveal the prize pool"
      },
      "symbol()": {
        "notice": "See {IConfidentialERC20-symbol}."
      },
      "totalSupply()": {
        "notice": "See {IConfidentialERC20-totalSupply}."
      },
      "transfer(address,bytes32,bytes)": {
        "notice": "See {IConfidentialERC20-transfer}."
      },
      "transfer(address,uint256)": {
        "notice": "See {IConfidentialERC20-transfer}."
      },
      "transferFrom(address,address,bytes32,bytes)": {
        "notice": "See {IConfidentialERC20-transferFrom}."
      },
      "transferFrom(address,address,uint256)": {
        "notice": "See {IConfidentialERC20-transferFrom}."
      },
      "unwrap(uint64)": {
        "notice": "Unwrap ConfidentialERC20 tokens to ether (or other native tokens)."
      },
      "unwrapRequests(uint256)": {
        "notice": "Tracks the unwrap request to a unique request id."
      },
      "wrap()": {
        "notice": "Wrap ether (or other native token) to an encrypted format."
      }
    },
    "version": 1
  },
  "storageLayout": {
    "storage": [
      {
        "astId": 1717,
        "contract": "contracts/Fomo.sol:Fomo",
        "label": "_totalSupply",
        "offset": 0,
        "slot": "0",
        "type": "t_uint64"
      },
      {
        "astId": 1720,
        "contract": "contracts/Fomo.sol:Fomo",
        "label": "_name",
        "offset": 0,
        "slot": "1",
        "type": "t_string_storage"
      },
      {
        "astId": 1723,
        "contract": "contracts/Fomo.sol:Fomo",
        "label": "_symbol",
        "offset": 0,
        "slot": "2",
        "type": "t_string_storage"
      },
      {
        "astId": 1729,
        "contract": "contracts/Fomo.sol:Fomo",
        "label": "_balances",
        "offset": 0,
        "slot": "3",
        "type": "t_mapping(t_address,t_userDefinedValueType(euint64)5850)"
      },
      {
        "astId": 1737,
        "contract": "contracts/Fomo.sol:Fomo",
        "label": "_allowances",
        "offset": 0,
        "slot": "4",
        "type": "t_mapping(t_address,t_mapping(t_address,t_userDefinedValueType(euint64)5850))"
      },
      {
        "astId": 3098,
        "contract": "contracts/Fomo.sol:Fomo",
        "label": "paramsEBool",
        "offset": 0,
        "slot": "5",
        "type": "t_mapping(t_uint256,t_array(t_userDefinedValueType(ebool)5840)dyn_storage)"
      },
      {
        "astId": 3104,
        "contract": "contracts/Fomo.sol:Fomo",
        "label": "paramsEUint4",
        "offset": 0,
        "slot": "6",
        "type": "t_mapping(t_uint256,t_array(t_userDefinedValueType(euint4)5842)dyn_storage)"
      },
      {
        "astId": 3110,
        "contract": "contracts/Fomo.sol:Fomo",
        "label": "paramsEUint8",
        "offset": 0,
        "slot": "7",
        "type": "t_mapping(t_uint256,t_array(t_userDefinedValueType(euint8)5844)dyn_storage)"
      },
      {
        "astId": 3116,
        "contract": "contracts/Fomo.sol:Fomo",
        "label": "paramsEUint16",
        "offset": 0,
        "slot": "8",
        "type": "t_mapping(t_uint256,t_array(t_userDefinedValueType(euint16)5846)dyn_storage)"
      },
      {
        "astId": 3122,
        "contract": "contracts/Fomo.sol:Fomo",
        "label": "paramsEUint32",
        "offset": 0,
        "slot": "9",
        "type": "t_mapping(t_uint256,t_array(t_userDefinedValueType(euint32)5848)dyn_storage)"
      },
      {
        "astId": 3128,
        "contract": "contracts/Fomo.sol:Fomo",
        "label": "paramsEUint64",
        "offset": 0,
        "slot": "10",
        "type": "t_mapping(t_uint256,t_array(t_userDefinedValueType(euint64)5850)dyn_storage)"
      },
      {
        "astId": 3134,
        "contract": "contracts/Fomo.sol:Fomo",
        "label": "paramsEAddress",
        "offset": 0,
        "slot": "11",
        "type": "t_mapping(t_uint256,t_array(t_userDefinedValueType(eaddress)5856)dyn_storage)"
      },
      {
        "astId": 3139,
        "contract": "contracts/Fomo.sol:Fomo",
        "label": "paramsAddress",
        "offset": 0,
        "slot": "12",
        "type": "t_mapping(t_uint256,t_array(t_address)dyn_storage)"
      },
      {
        "astId": 3144,
        "contract": "contracts/Fomo.sol:Fomo",
        "label": "paramsUint256",
        "offset": 0,
        "slot": "13",
        "type": "t_mapping(t_uint256,t_array(t_uint256)dyn_storage)"
      },
      {
        "astId": 3149,
        "contract": "contracts/Fomo.sol:Fomo",
        "label": "requestedHandles",
        "offset": 0,
        "slot": "14",
        "type": "t_mapping(t_uint256,t_array(t_uint256)dyn_storage)"
      },
      {
        "astId": 2413,
        "contract": "contracts/Fomo.sol:Fomo",
        "label": "isAccountRestricted",
        "offset": 0,
        "slot": "15",
        "type": "t_mapping(t_address,t_bool)"
      },
      {
        "astId": 2419,
        "contract": "contracts/Fomo.sol:Fomo",
        "label": "unwrapRequests",
        "offset": 0,
        "slot": "16",
        "type": "t_mapping(t_uint256,t_struct(UnwrapRequest)2963_storage)"
      },
      {
        "astId": 1109,
        "contract": "contracts/Fomo.sol:Fomo",
        "label": "hiddenPoolPrize",
        "offset": 0,
        "slot": "17",
        "type": "t_userDefinedValueType(euint64)5850"
      },
      {
        "astId": 1112,
        "contract": "contracts/Fomo.sol:Fomo",
        "label": "countdownTimer",
        "offset": 0,
        "slot": "18",
        "type": "t_userDefinedValueType(euint256)5854"
      },
      {
        "astId": 1114,
        "contract": "contracts/Fomo.sol:Fomo",
        "label": "isGameFinished",
        "offset": 0,
        "slot": "19",
        "type": "t_bool"
      },
      {
        "astId": 1116,
        "contract": "contracts/Fomo.sol:Fomo",
        "label": "lastPoolPrize",
        "offset": 0,
        "slot": "20",
        "type": "t_uint256"
      },
      {
        "astId": 1118,
        "contract": "contracts/Fomo.sol:Fomo",
        "label": "lastPoolPrizeTime",
        "offset": 0,
        "slot": "21",
        "type": "t_uint256"
      },
      {
        "astId": 1120,
        "contract": "contracts/Fomo.sol:Fomo",
        "label": "winner",
        "offset": 0,
        "slot": "22",
        "type": "t_address"
      },
      {
        "astId": 1125,
        "contract": "contracts/Fomo.sol:Fomo",
        "label": "bids",
        "offset": 0,
        "slot": "23",
        "type": "t_mapping(t_address,t_userDefinedValueType(euint64)5850)"
      },
      {
        "astId": 1129,
        "contract": "contracts/Fomo.sol:Fomo",
        "label": "requestedUsers",
        "offset": 0,
        "slot": "24",
        "type": "t_mapping(t_uint256,t_address)"
      }
    ],
    "types": {
      "t_address": {
        "encoding": "inplace",
        "label": "address",
        "numberOfBytes": "20"
      },
      "t_array(t_address)dyn_storage": {
        "base": "t_address",
        "encoding": "dynamic_array",
        "label": "address[]",
        "numberOfBytes": "32"
      },
      "t_array(t_uint256)dyn_storage": {
        "base": "t_uint256",
        "encoding": "dynamic_array",
        "label": "uint256[]",
        "numberOfBytes": "32"
      },
      "t_array(t_userDefinedValueType(eaddress)5856)dyn_storage": {
        "base": "t_userDefinedValueType(eaddress)5856",
        "encoding": "dynamic_array",
        "label": "eaddress[]",
        "numberOfBytes": "32"
      },
      "t_array(t_userDefinedValueType(ebool)5840)dyn_storage": {
        "base": "t_userDefinedValueType(ebool)5840",
        "encoding": "dynamic_array",
        "label": "ebool[]",
        "numberOfBytes": "32"
      },
      "t_array(t_userDefinedValueType(euint16)5846)dyn_storage": {
        "base": "t_userDefinedValueType(euint16)5846",
        "encoding": "dynamic_array",
        "label": "euint16[]",
        "numberOfBytes": "32"
      },
      "t_array(t_userDefinedValueType(euint32)5848)dyn_storage": {
        "base": "t_userDefinedValueType(euint32)5848",
        "encoding": "dynamic_array",
        "label": "euint32[]",
        "numberOfBytes": "32"
      },
      "t_array(t_userDefinedValueType(euint4)5842)dyn_storage": {
        "base": "t_userDefinedValueType(euint4)5842",
        "encoding": "dynamic_array",
        "label": "euint4[]",
        "numberOfBytes": "32"
      },
      "t_array(t_userDefinedValueType(euint64)5850)dyn_storage": {
        "base": "t_userDefinedValueType(euint64)5850",
        "encoding": "dynamic_array",
        "label": "euint64[]",
        "numberOfBytes": "32"
      },
      "t_array(t_userDefinedValueType(euint8)5844)dyn_storage": {
        "base": "t_userDefinedValueType(euint8)5844",
        "encoding": "dynamic_array",
        "label": "euint8[]",
        "numberOfBytes": "32"
      },
      "t_bool": {
        "encoding": "inplace",
        "label": "bool",
        "numberOfBytes": "1"
      },
      "t_mapping(t_address,t_bool)": {
        "encoding": "mapping",
        "key": "t_address",
        "label": "mapping(address => bool)",
        "numberOfBytes": "32",
        "value": "t_bool"
      },
      "t_mapping(t_address,t_mapping(t_address,t_userDefinedValueType(euint64)5850))": {
        "encoding": "mapping",
        "key": "t_address",
        "label": "mapping(address => mapping(address => euint64))",
        "numberOfBytes": "32",
        "value": "t_mapping(t_address,t_userDefinedValueType(euint64)5850)"
      },
      "t_mapping(t_address,t_userDefinedValueType(euint64)5850)": {
        "encoding": "mapping",
        "key": "t_address",
        "label": "mapping(address => euint64)",
        "numberOfBytes": "32",
        "value": "t_userDefinedValueType(euint64)5850"
      },
      "t_mapping(t_uint256,t_address)": {
        "encoding": "mapping",
        "key": "t_uint256",
        "label": "mapping(uint256 => address)",
        "numberOfBytes": "32",
        "value": "t_address"
      },
      "t_mapping(t_uint256,t_array(t_address)dyn_storage)": {
        "encoding": "mapping",
        "key": "t_uint256",
        "label": "mapping(uint256 => address[])",
        "numberOfBytes": "32",
        "value": "t_array(t_address)dyn_storage"
      },
      "t_mapping(t_uint256,t_array(t_uint256)dyn_storage)": {
        "encoding": "mapping",
        "key": "t_uint256",
        "label": "mapping(uint256 => uint256[])",
        "numberOfBytes": "32",
        "value": "t_array(t_uint256)dyn_storage"
      },
      "t_mapping(t_uint256,t_array(t_userDefinedValueType(eaddress)5856)dyn_storage)": {
        "encoding": "mapping",
        "key": "t_uint256",
        "label": "mapping(uint256 => eaddress[])",
        "numberOfBytes": "32",
        "value": "t_array(t_userDefinedValueType(eaddress)5856)dyn_storage"
      },
      "t_mapping(t_uint256,t_array(t_userDefinedValueType(ebool)5840)dyn_storage)": {
        "encoding": "mapping",
        "key": "t_uint256",
        "label": "mapping(uint256 => ebool[])",
        "numberOfBytes": "32",
        "value": "t_array(t_userDefinedValueType(ebool)5840)dyn_storage"
      },
      "t_mapping(t_uint256,t_array(t_userDefinedValueType(euint16)5846)dyn_storage)": {
        "encoding": "mapping",
        "key": "t_uint256",
        "label": "mapping(uint256 => euint16[])",
        "numberOfBytes": "32",
        "value": "t_array(t_userDefinedValueType(euint16)5846)dyn_storage"
      },
      "t_mapping(t_uint256,t_array(t_userDefinedValueType(euint32)5848)dyn_storage)": {
        "encoding": "mapping",
        "key": "t_uint256",
        "label": "mapping(uint256 => euint32[])",
        "numberOfBytes": "32",
        "value": "t_array(t_userDefinedValueType(euint32)5848)dyn_storage"
      },
      "t_mapping(t_uint256,t_array(t_userDefinedValueType(euint4)5842)dyn_storage)": {
        "encoding": "mapping",
        "key": "t_uint256",
        "label": "mapping(uint256 => euint4[])",
        "numberOfBytes": "32",
        "value": "t_array(t_userDefinedValueType(euint4)5842)dyn_storage"
      },
      "t_mapping(t_uint256,t_array(t_userDefinedValueType(euint64)5850)dyn_storage)": {
        "encoding": "mapping",
        "key": "t_uint256",
        "label": "mapping(uint256 => euint64[])",
        "numberOfBytes": "32",
        "value": "t_array(t_userDefinedValueType(euint64)5850)dyn_storage"
      },
      "t_mapping(t_uint256,t_array(t_userDefinedValueType(euint8)5844)dyn_storage)": {
        "encoding": "mapping",
        "key": "t_uint256",
        "label": "mapping(uint256 => euint8[])",
        "numberOfBytes": "32",
        "value": "t_array(t_userDefinedValueType(euint8)5844)dyn_storage"
      },
      "t_mapping(t_uint256,t_struct(UnwrapRequest)2963_storage)": {
        "encoding": "mapping",
        "key": "t_uint256",
        "label": "mapping(uint256 => struct IConfidentialERC20Wrapped.UnwrapRequest)",
        "numberOfBytes": "32",
        "value": "t_struct(UnwrapRequest)2963_storage"
      },
      "t_string_storage": {
        "encoding": "bytes",
        "label": "string",
        "numberOfBytes": "32"
      },
      "t_struct(UnwrapRequest)2963_storage": {
        "encoding": "inplace",
        "label": "struct IConfidentialERC20Wrapped.UnwrapRequest",
        "members": [
          {
            "astId": 2960,
            "contract": "contracts/Fomo.sol:Fomo",
            "label": "account",
            "offset": 0,
            "slot": "0",
            "type": "t_address"
          },
          {
            "astId": 2962,
            "contract": "contracts/Fomo.sol:Fomo",
            "label": "amount",
            "offset": 20,
            "slot": "0",
            "type": "t_uint64"
          }
        ],
        "numberOfBytes": "32"
      },
      "t_uint256": {
        "encoding": "inplace",
        "label": "uint256",
        "numberOfBytes": "32"
      },
      "t_uint64": {
        "encoding": "inplace",
        "label": "uint64",
        "numberOfBytes": "8"
      },
      "t_userDefinedValueType(eaddress)5856": {
        "encoding": "inplace",
        "label": "eaddress",
        "numberOfBytes": "32"
      },
      "t_userDefinedValueType(ebool)5840": {
        "encoding": "inplace",
        "label": "ebool",
        "numberOfBytes": "32"
      },
      "t_userDefinedValueType(euint16)5846": {
        "encoding": "inplace",
        "label": "euint16",
        "numberOfBytes": "32"
      },
      "t_userDefinedValueType(euint256)5854": {
        "encoding": "inplace",
        "label": "euint256",
        "numberOfBytes": "32"
      },
      "t_userDefinedValueType(euint32)5848": {
        "encoding": "inplace",
        "label": "euint32",
        "numberOfBytes": "32"
      },
      "t_userDefinedValueType(euint4)5842": {
        "encoding": "inplace",
        "label": "euint4",
        "numberOfBytes": "32"
      },
      "t_userDefinedValueType(euint64)5850": {
        "encoding": "inplace",
        "label": "euint64",
        "numberOfBytes": "32"
      },
      "t_userDefinedValueType(euint8)5844": {
        "encoding": "inplace",
        "label": "euint8",
        "numberOfBytes": "32"
      }
    }
  }
}